:020000040800F2
:1000000070080020010100084F100008E90C0008EA
:100010004D1000089F0100080D13000800000000AB
:100020000000000000000000000000006F12000847
:10003000A1010008000000006D1200087112000804
:100040001B0100081B0100081B0100081B01000820
:100050001B0100081B0100081B0100081B01000810
:100060001B0100081B0100081B0100081B01000800
:100070001B0100081B0100081B0100081B010008F0
:100080001B0100081B0100081B0100081B010008E0
:100090001B0100081B0100081B0100081B010008D0
:1000A0001B0100081B0100081B0100081B010008C0
:1000B0001B0100081B0100081B0100081B010008B0
:1000C0001B0100081B0100081B0100081B010008A0
:1000D0001B0100081B0100081B0100081B01000890
:1000E0001B0100081B0100081B010008DFF80CD0F1
:1000F00000F018F800480047BD1300087008002001
:100100000648804706480047FEE7FEE7FEE7FEE7B1
:10011000FEE7FEE7FEE7FEE7FEE7FEE7C1120008A6
:10012000ED000008064C074D06E0E06840F00103D2
:1001300094E8070098471034AC42F6D3FFF7DAFF93
:10014000281C0008481C000870B58C1810F8015BCA
:1001500015F0070301D110F8013B2A1106D110F860
:10016000012B03E010F8016B01F8016B5B1EF9D164
:100170002B0705D40023521E0DD401F8013BFAE7EA
:1001800010F8013BCB1A921C03E013F8015B01F855
:10019000015B521EF9D5A142D8D3002070BDFEE705
:1001A0007047704710B5134C2021204600F012F91B
:1001B00011A113A200284FF000004FF0010308BF67
:1001C0000A46002100F0D6FF2046102100F002F977
:1001D00004460DA00DA200210123012C08BF0246F8
:1001E0006C2000F0C7FF601E0949B0FA80F040099A
:1001F000087010BD000C01404F6E6C696E652000E8
:100200004F66666C696E65004F4E20004F46460093
:1002100010040020B0B5044600F0E6F80546054895
:10022000611C007818BF044400F0DEF8401BA042B7
:10023000FAD3B0BD000000202DE9FC4F594A042339
:100240004FF0000B4FF001084FF00F0E4FF0000978
:100250000025904208BF032300930B6833FA05F290
:1002600008BFBDE8FC8F08FA05F2134200F0958044
:100270004F68032F16D9112F24D0122F26D04C4BA4
:100280009F4213D04B4B9F4210D04B4B9F420DD0FF
:100290004A4B9F420AD04A4B9F4207D0494B9F424C
:1002A00004D020E0DFE807F00216191D8B6833B197
:1002B000012B14BF426102614FF0080913E04FF0B7
:1002C000040910E0CB6803F104090CE0CB6803F1EA
:1002D0000C0908E0D1F80C9005E0CB6803F108099F
:1002E00001E04FF000095B460646082D28BF203B81
:1002F00028BF043637680EFA03F409FA03F327EA35
:10030000040423433360CB79DB0646D5F24C264EFA
:100310000BF00C0C2368A6F57E7643F001032360F6
:10032000236803F0010301930EFA0CF3019CAC085F
:1003300056F8247027EA030A234B984208D0234B2F
:10034000984207D0224B9842009B08BF022302E04C
:10035000002300E0012303FA0CF343EA0A0346F802
:100360002430114C4F68FB03236854BF934313435D
:100370002360BB03636854BF934313436360FB0272
:10038000A36854BF93431343A360084CBB02236884
:1003900054BF23EA02021A4322600BF1040B013519
:1003A0005BE700BF00140140000401400C04014061
:1003B0000000111000001210000021100000221097
:1003C000000031100000321000080140000C014014
:1003D000001001408068084018BF01207047002AC3
:1003E00008BF090401617047C0480068704700BF3A
:1003F000F8B520B3044690F83D0028B9002084F8F1
:100400003C00204600F03AF9242084F83D002068A2
:10041000016821F00101016000F080FA49494A4B6E
:1004200000224A4D88424FF0000138BF0121984216
:1004300038BF01226368AB4238BF0A460AB10120C7
:10044000F8BD4349434EB0FBF1F22168B3424D6819
:1004500025F03F0545EA02054D600D6A25F03F0590
:1004600011D8013201382A430A625A004CF6FF7350
:10047000B0FBF2F001306FF31F30042898BF042066
:10048000CA699A4337E04FF49676013872434FF4C5
:100490007A76B2FBF6F201322A434CF6FF750A6215
:1004A000CA69AA43A56845B1192604275E43B0FB73
:1004B000F6F6013667F31F3606E003EB4306B0FBA2
:1004C000F6F601366FF31F36360509D055B11925FA
:1004D0006B43B0FBF3F00423013063F31F3008E0FB
:1004E000012008E003EB4303B0FBF3F001306FF3AE
:1004F0001F3040F40040104304F10C06C861E0696D
:100500000A6822F0C0021043226A104348F2FF3208
:100510000860886890436CCE184310438860C868B0
:1005200020F0FF0028433043C860086840F0010015
:10053000086000202021206484F83D10206384F8A6
:100540003E00F8BD80841E0000093D00A186010028
:1005500040420F00A08601002DE9FE439946164651
:100560000F460446FFF740FF054694F83D0020285B
:100570000BD14049204601221923009500F05EFC72
:1005800018B994F83C00012802D10220BDE8FE838E
:1005900001220DF1280884F83C20226898E8030124
:1005A0001368DB0703D1136843F00103136013687A
:1005B00023F40063136021224B4684F83D2040223F
:1005C00084F83E2000222264618560622A49324616
:1005D000608DE162394620852046CDE9008500F036
:1005E000B5FB10B10120BDE8FE83208D000422D0B0
:1005F000204641462A4600F0A7FC10BB616A2268EB
:10060000084610F8013B1361638D013B638560620E
:10061000238D581E20850704566918BF16F004065E
:10062000E4D0487802311061981E61622085618DA6
:1006300001396185DAE7204641462A4600F0D8FBB9
:1006400040B1206C0428CDD12068016841F40071CC
:100650000160C7E72068016841F400710160202053
:1006600084F83D00002084F83C0084F83E00BDE89A
:10067000FE8300BF020010000000FFFF10B586B02F
:100680000021CDE90411CDE9021101681148814230
:100690001DD13C4C00F53840216841F00801216033
:1006A000216801F0080101910321059112210391B4
:1006B000C0210291019902A9FFF7BEFD606840F4D4
:1006C00000106060606800F400100190019806B0AE
:1006D00010BD00BF00540040181002401A480349E2
:1006E00000780A6810440860704700BF6804002062
:1006F00080B58748016841F010010160032000F0D7
:1007000061F8002000F004F800F020F8002080BD1F
:1007100070B50D4E04464FF47A713078B1FBF0F0AD
:1007200083490968B1FBF0F000F0CAFA01250F2CEB
:1007300008D838B94FF0FF3021460022002500F0DC
:1007400025F87460284670BD0000002082B00D4876
:100750000222016841F001010160016801F001011C
:1007600001910199416841F080514160406800F079
:100770008050009000980448016862F31A6101609B
:1007800002B07047181002400400014070B5134BCE
:100790004FF0FF351B68C3F30223DC1E83F0070311
:1007A00038BF0024042B28BF042305FA04F605FAF9
:1007B00003F3B2439943A1401143BDE8704000F0F8
:1007C000EBBD00BF05494FF6FF030A681A4060F30E
:1007D0000A22034810430860704700BF0CED00E098
:1007E0000000FA052DE9F84300286AD088464849F8
:1007F0000446086800F0070040450AD2086820F067
:10080000070040EA08000860086800F0070040455B
:1008100057D12068554B8946810711D5410703D52B
:10082000196841F4E0611960010703D5196841F4C2
:1008300060511960A1681A6822F0F0021143196032
:10084000C00737D1D9F8000000F0070040450DD9A6
:10085000D9F8000020F0070040EA0800C9F80000BD
:10086000D9F8000000F0070040452AD12068410770
:1008700005D5E1681A6822F4E062114319600007A7
:1008800006D52069196821F4605141EAC00018605A
:100890001C4600F051F821681E4AC1F30311515C57
:1008A000C840234908601C480068FFF731FF00205A
:1008B000BDE8F8836068012806D153F8041C890359
:1008C0000BD40120BDE8F88353F8041C022802D1A0
:1008D0008901F6D501E08907F3D519681D4621F095
:1008E000030108431860FFF77FFD064641F2883791
:1008F000606829682B4601F00C01B1EB800FA1D094
:10090000FFF772FD801BB842F2D90320BDE8F883DF
:1009100000200240F813000804000020E6481349B4
:10092000044A00680968C1F30221515CC84070475D
:10093000080400200814000810B50C490C480A6887
:1009400002F00C03082B07D1C2F3834309A4D2039E
:10095000E35C02D40C48584310BD096809A258430F
:10096000C1F34041515CB0FBF1F010BD04100240F6
:1009700000127A0002030405060708090A0B0C0D91
:100980000E0F10100102000000093D002DE9FC418E
:10099000002800F0A68004460078C54EC00725D088
:1009A000706800F00C0004281AD0706800F00C0089
:1009B000082802D17068C00312D46068002800F0D3
:1009C0000C81B0F5803F07D03168B0F5A02F40F022
:1009D000388141F480203060306840F4803036E166
:1009E0003068800302D5606800287AD020788007BC
:1009F00018D5706810F00C0F07D0706800F00C006C
:100A0000082824D17068C00321D43068800702D53B
:100A10002069012865D16069316821F0F80141EA57
:100A2000C00030602078000741D5A06910B3A1480C
:100A30000121C0F88014FFF7D7FC0546706A8007D3
:100A400028D4FFF7D1FC401B0228F7D90CE121691B
:100A50009848002900F09A8001210160FFF7C4FC4A
:100A6000054630688007D6D4FFF7BEFC401B02283D
:100A7000F7D9F9E08F480021C0F88014FFF7B4FCE3
:100A80000546706A800712D5FFF7AEFC401B0228AE
:100A9000F7D9E9E088484FF4FA510068B0FBF1F06B
:100AA000019000BF0198411E00280191F9D12078E2
:100AB000400719D4E7698FB1706800F00C0008286E
:100AC00045D1012F0DD0216A706800F480328A422E
:100AD00007D1616A00F47010884202D10020BDE89D
:100AE000FC810120BDE8FC81F069C0000BD4F069F5
:100AF0004FF0010840F08050F061F06900F0805044
:100B00000090009801E04FF000086C4F3868C00575
:100B10000FD4386840F480703860FFF765FC0546F4
:100B20003868C00505D4FFF75FFC401B6428F7D97F
:100B30009AE0E068D0B3012805D0316A052862D177
:100B400041F004003062306A40F0010061E0594930
:100B5000002088460866FFF747FC0546022F0BD1A8
:100B600047463068800140F18280FFF73DFC411B21
:100B700003200229F5D9B2E730688001AED5FFF72E
:100B800033FC411B03200229F6D9A8E700210160AC
:100B9000FFF72AFC0546306880077FF543AFFFF773
:100BA00023FC411B03200229F5D998E7306A20F085
:100BB00001003062306A20F004003062FFF714FC5C
:100BC000054641F28837306A800731D5FFF70CFCC3
:100BD000411B0320B942F6D981E7306820F4803008
:100BE0003060306820F480203060FFF7FDFB054660
:100BF000306880037FF5FAAEFFF7F6FB411B032058
:100C00006429F5D96BE721F001003062306A20F0E9
:100C100004003062FFF7E8FB054641F28837306A8E
:100C2000800705D4FFF7E0FB401BB842F7D91BE073
:100C3000B8F1000F3FF43EAFF06920F08050F06152
:100C400038E721F480303060306820F48020306054
:100C5000FFF7CAFB0546306880033FF5C7AEFFF7D4
:100C6000C3FB401B6428F6D90320BDE8FC81206A41
:100C7000B0F5803F05D1A168726822F400321143BB
:100C80007160616A0843716821F4741108437060EF
:100C900001203866FFF7A8FB0446306880013FF565
:100CA0001DAFFFF7A1FB011B03200229F5D916E7B1
:100CB0000010024000004242080400200070004082
:100CC000411E0020B0EB116F1CBF01207047044A89
:100CD000F023516003490B70072190601160704749
:100CE00010E000E023ED00E0FEE70000C84801212D
:100CF0000022FFF774BB00BFC54801210122FFF7A6
:100D00006EBB00BF0448007820B1012818BF7047AF
:100D1000FFF7F2BFFFF7EABF100400200268516935
:100D200049054FF000010FD56FF480635361202215
:100D3000016380F83D2080F83E1080F83C10016C83
:100D400041F0040101640121084670472DE9FE438A
:100D5000044600680F460A9D0B9E99469046002265
:100D600001682B4641F48071016020464FF001116B
:100D7000009600F063F850B9206807F0FE012A469B
:100D8000334601611949204600F093F810B1012063
:100D9000BDE8FE830020324602902068416902913E
:100DA0002946806902900298204600F0CDF840B1B3
:100DB000206C0428EBD12068016841F400710160C7
:100DC000E5E7B9F1010F0AD020684FEA1821324651
:100DD00001612046294600F0B7F80028E8D12068D4
:100DE0005FFA88F101610020BDE8FE830200010086
:100DF000F8B515460E4604464F1C2068406940076A
:100E00001AD42046FFF78AFFA0B9002FF5D0FFF7CC
:100E1000EBFA16B1401BB042EFD90020202120632D
:100E200084F83D1084F83E0084F83C00206C40F0CB
:100E3000200020640120F8BD0020F8BD2DE9F04716
:100E4000DDF820909A46164680468FB201F47F0462
:100E50005D1C1820B4F5803F08BF1420D8F800109E
:100E600008583840C01BB0FA80F04009B0421DD18C
:100E7000002DEED0FFF7B8FABAF1000F03D0A0EBC7
:100E800009005045E5D900202021C8F8300088F835
:100E90003D1088F83E0088F83C00D8F8400040F04B
:100EA0002000C8F840000120BDE8F0870020BDE820
:100EB000F0872DE9F8439846164681468FB201F433
:100EC0007F05541CD9F80000B5F5803F0CBF41697F
:100ED00081693940B9421AD0416949051AD4002CB8
:100EE000F0D0FFF781FA1EB1A0EB0800B042E9D9BB
:100EF00000202021C9F8300089F83D1089F83E0013
:100F000089F83C00D9F8400040F0200017E00020AC
:100F1000BDE8F883016841F4007101606FF48061FD
:100F2000416100202021C9F8300089F83D1089F87E
:100F30003E0089F83C00D9F8400040F00400C9F8B0
:100F400040000120BDE8F883F8B515460E4604467A
:100F50004F1C2068406900061AD42046FFF7DEFEC9
:100F6000A0B9002FF5D0FFF73FFA16B1401BB042F1
:100F7000EFD900202021206384F83D1084F83E0042
:100F800084F83C00206C40F0200020640120F8BD73
:100F90000020F8BDF0B585B01C481D4C002201268C
:100FA0000027016841F020010160016801F0200183
:100FB00001910199016841F004010160016801F0AB
:100FC000040101910199016841F0080101600121CA
:100FD000006800F00800019001982046FFF7FFF933
:100FE000022001ADCDE9037020462946CDE9016616
:100FF000FFF722F93020CDE902762946019004F569
:101000008060FFF719F905B0F0BD00BF181002406D
:101010000008014010B5DF480A4B0B4C00214FF48B
:101020008042C0E90043C0E90211C0E90421C0E9DF
:1010300006110162FFF7DCF918B1BDE81040FFF7B7
:10104000B0B810BDA086010000540040FEE7704714
:10105000002000F01FB82DE9F047089F984615467C
:101060008A46814600245FFA8AF1414528BFBDE8DF
:10107000F087484600F06AF84E46F0B2A84205D222
:10108000385D00F075F901360134F6E70AF1010A1E
:10109000E9E70000F8B5364E04460025E8B2072817
:1010A00088BFF8BDA5F15000C0B2B04700200027AE
:1010B000B0471020B04778B2002804D4204600F092
:1010C00057F90137F7E70135E8E700BF10B56420AD
:1010D000FFF7A0F8264CAE20A0472020A047102004
:1010E000A047B020A047C820A0470020A04710205C
:1010F000A0474020A0478120A047FF20A047A12073
:10110000A047A620A047A820A0473F20A047A42092
:10111000A047D320A0470020A047D520A047F0201B
:10112000A047D920A0472220A047DA20A0471220BC
:10113000A047DB20A0472020A0478D20A0471420F7
:10114000A047AF202146BDE810400847B0B504468F
:10115000A1F15000064DC0B2A84720091030A847A1
:1011600004F00E0029460130BDE8B040084700BF3A
:101170004D1300082DE9FE4F934688460646012B85
:1011800045D0022B6BD1374D0021CDF804B0C8B249
:101190001BF80040002C62D0F0B20291782888BF82
:1011A00008F1010888BF0026F7B25FFA88F13846D7
:1011B000FFF7CCFFA4F12000AA464FF00009C0B20F
:1011C00005EB00144FEA001BB9F1080F06D014F824
:1011D000090000F0CDF809F10109F5E708F1010077
:1011E000C1B23846FFF7B2FF0AEB0B00DDF804B0DE
:1011F0005546002700F10804082F04D0E05D00F0F8
:10120000B7F80137F8E7029908360131BFE7DFF890
:1012100058904FF0000A5FFA8AF01BF80040F4B1D2
:10122000F0B27E2888BF08F1010888BF00265FFA67
:1012300088F1F0B2FFF78AFFA4F120000024C0B2C9
:1012400000EB400009EB4007062C04D0385D00F0AD
:101250008FF80134F8E70AF1010A0636DBE7BDE84A
:10126000FE8F00BF38160008101400087047704742
:10127000FFF734BAB0B590B000244FF4E010022567
:10128000CDE90B44CDE909440F904FF480300D9522
:101290000E90CDE90704012006900A9006A8FFF7FA
:1012A00075FB4FF480600594022104900F20CDE976
:1012B0000254019001A8FFF795FA10B0B0BD0000EC
:1012C0000E480F4A016841F0010101604168114078
:1012D0000C4A4160016811400160016821F48021DD
:1012E0000160416821F4FE0141604FF41F018160FB
:1012F00005484FF000610160704700BF00100240D8
:101300000000FFF8FFFFF6FE08ED00E0FEE700003A
:10131000E0B5094800218022082300900020FFF753
:101320009AFE4FF49670FEF775FFFFF791FEBDE849
:101330008C40FFF7DBBC00BF08000020FFF7E8FF90
:10134000FEF730FFFFF7DEFCFAE70000F8B58DF896
:101350000F00642001210DF10F020123CDE90021CE
:1013600002900C4878210022FFF7F6F88FBD00BFED
:10137000F8B58DF80F00642001210DF10F02012353
:10138000CDE900210290034878214022FFF7E4F8DC
:101390008FBD00BF1404002010B5074C00F00F03F0
:1013A000044AB0F1FF3F2344C8BF831808011870F6
:1013B00010BD00BF00E400E014ED00E0FFF798F975
:1013C000FFF758FFFFF7E6FDFFF724FEFFF77EFE6D
:1013D000FFF73EFEFFF7B2FFFCE702E008C8121F6E
:1013E00008C1002AFAD170477047002001E001C10E
:1013F000121F002AFBD1704700000000000000000F
:1014000001020304060708090000000001020304AA
:101410000000000000000000002F00000000070096
:10142000070000147F147F1400242A7F2A12006210
:1014300064081323003649552250000005030000BC
:1014400000001C224100000041221C000014083E44
:1014500008140008083E0808000000A0600000080A
:10146000080808080000606000000020100804025E
:10147000003E5149453E0000427F4000004261511C
:101480004946002141454B31001814127F100027B6
:1014900045454539003C4A49493000017109050379
:1014A00000364949493600064949291E00003636AA
:1014B000000000005636000000081422410000140D
:1014C00014141414000041221408000201510906EA
:1014D00000324959513E007C1211127C007F49496B
:1014E0004936003E41414122007F4141221C007F9C
:1014F00049494941007F09090901003E4149497AAA
:10150000007F0808087F0000417F41000020404123
:101510003F01007F08142241007F40404040007F8F
:10152000020C027F007F0408107F003E4141413ED3
:10153000007F09090906003E4151215E007F09191B
:1015400029460046494949310001017F0101003F18
:101550004040403F001F2040201F003F4038403F98
:1015600000631408146300070870080700615149FC
:10157000454300007F41410000552A552A5500008F
:1015800041417F000004020102040040404040400D
:10159000000001020400002054545478007F4844A5
:1015A000443800384444442000384444487F0038DC
:1015B0005454541800087E0901020018A4A4A47C05
:1015C000007F080404780000447D400000408084CF
:1015D0007D00007F102844000000417F4000007C17
:1015E00004180478007C0804047800384444443823
:1015F00000FC242424180018242418FC007C08046F
:10160000040800485454542000043F444020003C47
:101610004040207C001C2040201C003C4030403CCE
:10162000004428102844001CA0A0A07C004464545E
:101630004C441414141414140000000000000000A2
:101640000000000000000000000000F800000000A2
:10165000000000333000000000100C06100C0600E3
:10166000000000000000000040C07840C07840004A
:10167000043F04043F040400007088FC08300000AC
:10168000001820FF211E0000F008F000E018000004
:1016900000211C031E211E0000F0088870000000BD
:1016A0001E2123241927211010160E00000000000F
:1016B0000000000000000000000000E0180402002C
:1016C000000000071820400000020418E00000009D
:1016D0000040201807000000404080F0804040009B
:1016E0000202010F01020200000000F000000000F1
:1016F0000101011F010101000000000000000000C5
:1017000080B0700000000000000000000000000039
:1017100000010101010101010000000000000000C2
:10172000003030000000000000000000806018045D
:10173000006018060100000000E010080810E0003A
:10174000000F102020100F00001010F80000000003
:101750000020203F2020000000700808088870004A
:1017600000302824222130000030088888483000CA
:101770000018202020110E000000C02010F80000EA
:1017800000070424243F240000F808888808080083
:101790000019212020110E0000E010888818000098
:1017A000000F112020110E0000380808C83808006A
:1017B0000000003F000000000070880808887000EA
:1017C000001C222121221C0000E010080810E0006B
:1017D0000000312222110F00000000C0C0000000F4
:1017E0000000003030000000000000800000000019
:1017F0000000806000000000000080402010080011
:1018000000010204081020004040404040404000D9
:1018100004040404040404000008102040800000B4
:101820000020100804020100007048080808F000B9
:101830000000003036010000C030C828E810E00089
:101840000718272423140B000000C038E000000014
:10185000203C23020227382008F88888887000007E
:10186000203F202020110E00C03008080808380052
:10187000071820202010080008F808080810E000C9
:10188000203F202020100F0008F88888E80810006A
:10189000203F20202320180008F88888E80810003E
:1018A000203F200003000000C03008080838000076
:1018B00007182020221E020008F808000008F80877
:1018C000203F210101213F20000808F808080000FE
:1018D0000020203F2020000000000808F808080031
:1018E000C08080807F00000008F888C028180800A9
:1018F000203F20012638200008F8080000000000E2
:10190000203F20202020300008F8F800F8F80800D8
:10191000203F003F003F200008F830C00008F808D2
:10192000203F200007183F00E01008080810E000E2
:101930000F10202020100F0008F808080808F000F9
:10194000203F210101010000E01008080810E0001C
:101950000F18242438504F0008F8888888887000B1
:10196000203F2000030C3020007088080808380051
:101970000038202121221C00180808F80808180047
:101980000000203F2000000008F808000008F808C8
:10199000001F202020201F000878880000C8380879
:1019A000000007380E010000F80800F80008F800F1
:1019B000033C0700073C030008186880806818088B
:1019C00020302C03032C30200838C800C838080009
:1019D0000000203F2000000010080808C838080058
:1019E0002038262120201800000000FE02020200FC
:1019F0000000007F40404000000C30C000000000AC
:101A0000000000010638C00000020202FE000000D3
:101A1000004040407F000000000004020202040079
:101A200000000000000000000000000000000000B6
:101A3000808080808080808000020204000000009E
:101A40000000000000000000000080808080000096
:101A50000019242222223F2008F800808000000084
:101A6000003F112020110E00000000808080000047
:101A7000000E112020201100000000808088F80056
:101A8000000E112020103F20000080808080000088
:101A9000001F222222221300008080F088888818EC
:101AA0000020203F202000000000808080808000F7
:101AB000006B94949493600008F80080808000008C
:101AC000203F210000203F20008098980000000067
:101AD0000020203F20200000000000809898000097
:101AE00000C08080807F000008F8000080808000B7
:101AF000203F24022D302000000808F800000000DC
:101B00000020203F20200000808080808080800096
:101B1000203F20003F20003F808000808080000028
:101B2000203F210000203F200000808080800000B6
:101B3000001F202020201F008080008080000000E7
:101B400080FFA12020110E00000000808080800016
:101B5000000E112020A0FF80808080008080800007
:101B600020203F2120000100000080808080800034
:101B70000033242424241900008080E080800000A9
:101B80000000001F202000008080000000808000F6
:101B9000001F202020103F20808080000080808057
:101BA00000010E30080601008080008000808080E7
:101BB0000F300C030C300F0000808000808080000C
:101BC0000020312E0E312000808080000080808037
:101BD00080818E70180601000080808080808000E7
:101BE0000021302C2221300000000000807C020205
:101BF00000000000003F404000000000FF00000027
:101C000000000000FF0000000002027C80000000D5
:101C10000040403F000000000006010102020404F1
:101C20000000000000000000481C00080000002028
:101C30001004000048010008401D000810040020A6
:101C400060040000EA130008320102FF1001923A1A
:101C5000F8012C7878B8054904C9011B78B8011936
:101C60001661F460E0E0148080807AC00161390B75
:101C70002280071DE0E06060E06015FFFFFFFD13BC
:101C8000B6DA180A7FBFFFC3BABBBBBAC3113901AA
:101C90001D01EDEEEE1E112A7701290931101218EF
:101CA000FCFC7F1FCCFEFCFCF8F8181C9CFCFC38EC
:101CB000180B183871B3E3E0077F7FE6015C3E9FA5
:101CC0008381080F1D6F6DECEEF77E7E67E7E6B649
:101CD000971C18802813F7FAFDFD80FFF1FCF2E74E
:101CE000CDDDD9DBDFE6FCF9802809FEFEFEBEDC97
:101CF000EFF3FC0C2BDF80801014383C0F171938E1
:101D00007E7F1F01030F0F0E070707060E281330F3
:101D1000787E1F6360777F7E7F703F7F7E777371F1
:101D200070EF10083E7E6767677E3C2A7C08041BC4
:101D30007F3E1E0A26030101CA5324F4000000005E
:04000005080000ED02
:00000001FF
