:020000040800F2
:10000000C009002001010008572400087D1E0008D7
:100010005524000845090008192C000800000000BC
:10002000000000000000000000000000E9290008B6
:10003000770900080000000035280008EB290008B7
:100040001B0100081B0100081B0100081B01000820
:100050001B0100081B0100081B0100081B01000810
:100060001B0100081B010008790900081B0100089A
:100070001B0100081B0100081B0100081B010008F0
:100080001B0100081B0100081B0100081B010008E0
:100090001B0100081B0100081B0100081B010008D0
:1000A0001B0100081B0100081B0100081B010008C0
:1000B000852A00081B0100081B0100081B0100081D
:1000C0001B0100081B0100081B0100081B010008A0
:1000D0001B0100081B0100081B0100081B01000890
:1000E0001B0100081B0100081B010008DFF80CD0F1
:1000F00000F04CFB00480047892D0008C009002093
:100100000648804706480047FEE7FEE7FEE7FEE7B1
:10011000FEE7FEE7FEE7FEE7FEE7FEE7392A000816
:10012000ED000008202A04DB203A21FA02F0002129
:10013000704721FA02F3D040C2F1200291400843F7
:1001400019467047F0B480EA0102D40F4200B2EBC6
:10015000410F02D20246084611464A0042D0C30D62
:10016000DDB2C1F3C752AD1A202D35DAC1F3160145
:1001700041F4000204B15242C5F1200602FA06F130
:100180002A411044B3EBD05F23D0C4B1012DA0EBC2
:10019000C35009DCF0BC4FF0004202EAC352DBB2AC
:1001A00000F5000000F00CB9400000F1807000EB99
:1001B000C350A0F1807040EAD170490009E04908BD
:1001C00041EAC071A0EBC35000F50000400800EB0D
:1001D000C350F0BC00F0EBB86142012202EB4101D8
:1001E000001BF6E7F0BC704781F00041AAE780F001
:1001F0000040A7E780EA010210B502F0004340008A
:1002000022D04A001FD0010E01EB1261C0F356004C
:10021000C2F3560240F4000042F40002A0FB0220A8
:1002200000047F39140400D0401C50EA124001D46D
:100230004000491EC2B20C0604EBD010401C40081E
:10024000802A02D003E0002010BD20F00100002928
:1002500000DA0020184310BD30B480EA010202F039
:10026000004530F0004221F0004013D090B1C30DA2
:10027000D40DC2F31601C0F31600E41A41F40001D4
:1002800040F400027D34914201D3641C00E0490037
:10029000002C02DA30BC002070474FF4000000232D
:1002A000914201D3891A034340084FEA4101F7D133
:1002B00051B1914202D14FF0004105E002D24FF01E
:1002C000010101E06FF0010103EBC450284430BC90
:1002D00000F06DB8002801DBC0F10040002901DB0F
:1002E000C1F10041814201D30120704700207047D5
:1002F00096230022114600F063B800F0004230F06F
:1003000000400AD0C10D01F56071C0F3160042EA49
:100310000151C20840071143704700200146704751
:1003200030B50B46014600202022012409E021FAC5
:1003300002F59D4205D303FA02F5491B04FA02F5C2
:100340002844151EA2F10102F1DC30BD2DE9F05F59
:100350000546002092469B46884606468146402434
:100360001BE02846414647462246FFF7DBFE534640
:100370005A46C01A914110D311461846224600F041
:1003800017FA2D1A67EB01084F462246012000217B
:1003900000F00EFA17EB00094E41201EA4F10104F3
:1003A000DFDC484631462A464346BDE8F09F002937
:1003B000A8BF7047401C490008BF20F001007047EB
:1003C00010B4B0FA80FC00FA0CF050EA010404BF4B
:1003D00010BC704749B1CCF1200421FA04F411FAA1
:1003E0000CF118BF012121430843A3EB0C01CB1DE5
:1003F0004FEA00614FEA102042BF002010BC704756
:1004000000EBC35010440029A4BF10BC7047401C2F
:10041000490008BF20F0010010BC70472DE9FE4FD5
:10042000804681EA0300C00F0C46009021F0004195
:1004300023F00045B8EB0200A94105D24046214611
:1004400090461C460B46024623F00040104347D01E
:10045000270DC7F30A00C3F30A510290401A019016
:1004600040286BDAC3F3130040F4801B00989246D7
:1004700020B10023D2EB030A63EB0B0B0198594622
:10048000C0F14002504600F093F906460D46504632
:100490005946019A00F09BF910EB080061410024D5
:1004A00087EA115284EAE7731A4340D0009A62B394
:1004B000019A012A4FEA075215DC001B61EB020189
:1004C0004FF0004202EA0752CDE90042001C41F51C
:1004D000801132462B4600F09BF903B0BDE8F08F47
:1004E00040462146F9E7001B61EB0201001C41F583
:1004F000801300185B412018A2F5001747EB030199
:1005000040EAD570B6196D4111E06D084FEA360624
:1005100045EAC0754FEA0752001B61EB0201001C5F
:1005200041F5801149084FEA300000195141324627
:100530002B4603B0BDE8F04F00F05BB900980122F4
:1005400040000023D0EB020263EBE07300982146E9
:100550004FEAE074B8EB000061EB0401E9E783F0D7
:1005600000435BE781F0004158E72DE9FE4F81EA47
:10057000030404F0004421F0004100944FF0000B0C
:1005800023F0004350EA01045ED052EA03045BD03A
:10059000C3F30A54C1F30A552C44A4F2F334019472
:1005A000A0FB0254C1F3130141F48011C3F3130300
:1005B00043F4801301FB024400FB034E840A970AB4
:1005C00044EA815447EA8357A4FB076802958D0AE1
:1005D00005FB07854FEA932C04FB0C542705029D6D
:1005E0004FEA065847EA1637B5EB08056EEB070CDD
:1005F000870E920E47EA811742EA8312A7FB020197
:10060000B6EB0B0164EB00042B0D43EA0C335E18D0
:1006100044EB1C50DA465146E7FB0201C5F31304D4
:100620004FEA0B3343EA14534FEA0432019C43EA86
:100630000603A4F10C040294009CCDE900B400F080
:10064000E7F803B0BDE8F08F00200146F9E72DE997
:10065000F04D81EA030404F0004B21F000451446FC
:100660004FF0000A23F0004150EA050220D054EA7E
:1006700001021DD0C5F30A570246C5F31303C1F3A7
:100680001300C1F30A5640F4801543F48013A7EB1E
:100690000608101BD64608F2FD3873EB050002D39E
:1006A00008F1010801E092185B41B8F1000F03DA8C
:1006B00000200146BDE8F08D00204FF48011064671
:1006C00084460EE0171B73EB050705D3121B63EB83
:1006D000050306434CEA010C49084FEA3000921822
:1006E0005B4150EA0107EDD152EA030012D082EAE1
:1006F000040083EA0501084305D0101BAB4106D274
:100700000122002306E000224FF0004302E06FF0D8
:10071000010253101AEB06004CEB085110EB0A00D3
:1007200041EB0B01BDE8F04D00F063B8C1F30A5294
:10073000C1F3130140F2FF3341F480119A4202DA0F
:1007400000200146704740F233439A42A2F23342FE
:1007500002DC5242FFF7E6BC00F02AB830B5041EB6
:1007600071F1000404DB4FF00044404264EB0101EE
:10077000141E73F1000405DB1C464FF00043524287
:1007800063EB0403994208BF904230BD064C074D0D
:1007900006E0E06840F0010394E807009847103451
:1007A000AC42F6D3FFF7A6FC403F0008603F0008CC
:1007B000202A04DB203A00FA02F100207047914021
:1007C000C2F1200320FA03F3194390407047202A16
:1007D00006DBCB17203A41FA02F043EAE07306E069
:1007E00041FA02F3D040C2F1200291400843194679
:1007F000704710B5141E73F1000408DA401C41F173
:10080000000192185B411A4301D120F0010010BD94
:100810002DE9F04D92469B4611B1B1FA81F202E00A
:10082000B0FA80F220329046FFF7C2FF04460F462E
:1008300040EA0A0041EA0B0153465A46084313D0E6
:10084000114653EA010019D0C8F140025046FFF7A3
:1008500069FC05460E46504659464246FFF7A8FF3A
:10086000084305D0012004E020463946BDE8F08D5C
:100870000020054346EAE0762C4337430A98630597
:10088000E40AA0EB08000022FD0A44EA47540A30BB
:1008900002D500200146E9E7010510196941DDE9AB
:1008A000084500196941BDE8F04DA2E770B58C1804
:1008B00010F8015B15F0070301D110F8013B2A1174
:1008C00006D110F8012B03E010F8016B01F8016B61
:1008D0005B1EF9D12B0705D40023521E0DD401F85D
:1008E000013BFAE710F8013BCB1A921C03E013F826
:1008F000015B01F8015B521EF9D5A142D8D300205B
:1009000070BD00002DE9F041D84F90460D460646D7
:100910000024B44228BFBDE8F08138464FF40051AE
:10092000012200F0ACF9284600F090F838464FF468
:100930000051002200F0A3F9404600F087F801348E
:10094000E7E700BFFEE770B500223123022A10D08E
:10095000845C61400024072C09D8CDB2090604F15B
:10096000010483EA450658BF6E003146F3E70132C1
:10097000ECE7C8B270BD7047102000F0A1B8704716
:10098000B0B5164C2021204600F074F9054614A09D
:1009900015A200210C23002D08BF0246002001F003
:1009A0000AFFB5FA85F01249400908702046102167
:1009B00000F060F948B12046102100F05BF90FA269
:1009C0000DA1012808BF0A4600E00AA26820002104
:1009D0000C23BDE8B04001F0EEBE00BF000C0140AA
:1009E0004F6E6C696E6520004F66666C696E6500BF
:1009F000C50400204F4E20004F464600554E4B0088
:100A000060B110B50446407920B90020207120461D
:100A100000F006F801206071002010BD0120704731
:100A200081B000680749884209D10748016841F050
:100A300040010160006800F040000090009801B0A3
:100A4000704700BF0030024014100240B0B50446A9
:100A500000F01AF905460548611C007818BF0444E7
:100A600000F012F9401BA042FAD3B0BD04000020F0
:100A700010B511490A780AB100220A70102808D06E
:100A8000B0F5805F16D10D48017803290DD20131F0
:100A90000FE0764C1021204600F0ECF838B12046EB
:100AA000102100F0E7F828B10448002101E00348D4
:100AB0000121017010BD00BFC4040020C604002045
:100AC00003490A68024208BF70470860FFF7D0BFB9
:100AD000140401402DE9FC4F594A04234FF0000B48
:100AE0004FF001084FF00F0E4FF000090025904223
:100AF00008BF032300930B6833FA05F208BFBDE873
:100B0000FC8F08FA05F2134200F095804F68032F1E
:100B100016D9112F24D0122F26D04D4B9F4213D01F
:100B20004C4B9F4210D04C4B9F420DD04B4B9F42A1
:100B30000AD04B4B9F4207D04A4B9F4204D020E043
:100B4000DFE807F00216191D8B6833B1012B14BFC3
:100B5000426102614FF0080913E04FF0040910E010
:100B6000CB6803F104090CE0CB6803F10C0908E041
:100B7000D1F80C9005E0CB6803F1080901E04FF0D3
:100B800000095B460646082D28BF203B28BF0436D7
:100B900037680EFA03F409FA03F327EA040423433F
:100BA0003360CB79DB0646D5284C264E0BF00C0C77
:100BB0002368A6F57E7643F001032360236803F0E3
:100BC000010301930EFA0CF3019CAC0856F8247053
:100BD00027EA030A244B984208D0244B984207D0B6
:100BE000234B9842009B08BF022302E0002300E051
:100BF000012303FA0CF343EA0A0346F82430114CAC
:100C00004F68FB03236854BF934313432360BB0324
:100C1000636854BF934313436360FB02A36854BFEC
:100C200093431343A360084CBB02236854BF23EAD9
:100C300002021A4322600BF1040B01355BE700BF8F
:100C400000140140000401400C040140181002404F
:100C500000001110000012100000211000002210EE
:100C6000000031100000321000080140000C01406B
:100C7000001001408068084018BF01207047002A1A
:100C800008BF09040161704701480068704700BF50
:100C9000B8050020F8B520B3044690F83D0028B907
:100CA000002084F83C00204600F004FB242084F857
:100CB0003D002068016821F00101016000F072FC34
:100CC00049494A4B00224A4D88424FF0000138BF43
:100CD0000121984238BF01226368AB4238BF0A46FF
:100CE0000AB10120F8BD4349434EB0FBF1F221683F
:100CF000B3424D6825F03F0545EA02054D600D6A97
:100D000025F03F0511D8013201382A430A625A0002
:100D10004CF6FF73B0FBF2F001306FF31F30042884
:100D200098BF0420CA699A4337E04FF49676013899
:100D300072434FF47A76B2FBF6F201322A434CF654
:100D4000FF750A62CA69AA43A56845B11926042736
:100D50005E43B0FBF6F6013667F31F3606E003EBA1
:100D60004306B0FBF6F601366FF31F36360509D0A1
:100D700055B119256B43B0FBF3F00423013063F345
:100D80001F3008E0012008E003EB4303B0FBF3F061
:100D900001306FF31F3040F40040104304F10C06A3
:100DA000C861E0690A6822F0C0021043226A104359
:100DB00048F2FF320860886890436CCE18431043B5
:100DC0008860C86820F0FF0028433043C860086886
:100DD00040F00100086000202021206484F83D10CC
:100DE000206384F83E00F8BD80841E0000093D00A9
:100DF000A186010040420F00A08601002DE9FC4BB6
:100E00001D4617468B460446FFF73EFF814694F881
:100E10003D0020280ED1C24E204601221923CDF8D4
:100E2000009006F5702101F02FF918B994F83C00F4
:100E3000012802D10220BDE8FC8B012084F83C008F
:100E400020680168C90703D1016841F00101016010
:100E50000168A6F10212DDF8288021F4006101602A
:100E6000222184F83D10102184F83E1000212164D5
:100E700065853546618DE26267622185E16A0268B7
:100E800042F4806211F5803F026018BF012933D11E
:100E9000016841F48071016020464FF00111002289
:100EA0004346CDF8009001F0EFF810B10120BDE805
:100EB000FC8B2069B0F5804F24D14BF00100C0B20B
:100EC000216842464B4608612046294601F017F941
:100ED0000028EBD1218D01294BD000295FD10020C2
:100EE000019020684169019181690191019901682E
:100EF00041F40071016074E00829C9D0216B112907
:100F0000C6D0C9E706202F46216842464B4600EA74
:100F1000DB1505F1F0000861B91D204601F0EFF87E
:100F20000028C3D120685FFA8BF142464B4601612D
:100F30002046394601F0E3F80028B7D1002000220E
:100F400043460190206841690191816901910199AD
:100F5000016841F48071016020464FF00111CDF825
:100F6000009001F091F80028A0D145F0F10035463D
:100F7000A6E72068016821F480610160EFF310802A
:100F800072B6002001902068416901918169019148
:100F90000199016841F40071016062B621E02068A6
:100FA0000229026813D142F400610160EFF310805E
:100FB00072B6002001902068416901918169019118
:100FC0000199016821F48061016062B609E042F490
:100FD0008061016000210191416901918069019066
:100FE0000198208DAF1C010400F08F8085B2032D85
:100FF00009D8012D23D1204641464A4601F0CAF8BE
:10100000002874D052E7204641464A4601F0C2F813
:1010100000287FF44BAF2068616A00690870608D1A
:1010200001386085606A2168421C208D6262013847
:1010300020854B695B07D6D5086910705BE02046B8
:10104000394600224346CDF8009001F01DF8022DEC
:1010500018D100287FF42AAFEFF3108072B6616ACE
:101060002068026842F40072026000690870606AD9
:1010700001306062608D01386085208D01382085E7
:1010800062B634E000287FF411AF206800224346A6
:10109000016821F480610160EFF3108072B6616A2B
:1010A0002068006908703946606A01306062608DAE
:1010B00001386085208D013820852046CDF80090CC
:1010C00000F0E2FF00287FF4F1AE2068616A026858
:1010D00042F40072026000690870606A0130606268
:1010E000208D01382085608D0138608562B62068CA
:1010F000616A00690870606A01306062208D0138A1
:101100002085618D013961856DE7202084F83D00DF
:10111000002084F83C0084F83E00BDE8FC8B00BF52
:10112000020001002DE9FC471F4616468946044689
:10113000FFF7AAFD824694F83D0020280ED15C4DB1
:10114000204601221923CDF800A005F5702100F0FA
:101150009BFF18B994F83C00012802D10220BDE899
:10116000FC87012084F83C0020680168C90703D18E
:10117000016841F0010101600168A5F10212DDF88A
:10118000288021F400610160212184F83D101021A4
:1011900084F83E10002121646785618DE2626662F9
:1011A0002185E16A11F5803F18BF012913D101683B
:1011B00041F48071016020464FF001110022434646
:1011C000CDF800A000F060FF20BB2069B0F5804F93
:1011D00007D1FE2013E00829E9D0216B1229E6D0BF
:1011E000E9E7062021684246534600EAD910F0306C
:1011F0000861A91D204600F082FF58B9FF20216830
:1012000000EA09004246534608612046294600F09C
:1012100076FF10B10120BDE8FC8700200190206816
:1012200041690191806901900198208D88B3204621
:101230004146524600F0DDFF10BB606A216802465D
:1012400012F8013B0B61638D013B63856262228D65
:10125000561E268536044B6918BF13F0040308D0C8
:10126000437802300B616062901E2085608D0138EA
:10127000608520464146524600F0E0FE0028D4D06A
:10128000206C0428C6D12068016841F40071016017
:10129000C0E72068016841F400710160202084F8F3
:1012A0003D00002084F83C0084F83E00BDE8FC8747
:1012B00002000100FEB50021CDE90411CDE90211C3
:1012C0001D490068884216D01C49884231D14848DF
:1012D000016841F008010160016801F00801019115
:1012E0000199416841F400114160406800F4001028
:1012F0000190C02013E03E48016841F00801016000
:10130000016801F0080101910199416841F48001EF
:101310004160406800F4800001904FF4406002900A
:1013200002A9019803200590122003900448FFF7BA
:10133000D1FB06B080BD00BF005800400054004003
:10134000000C01401A48034900780A6810440860FC
:10135000704700BFB805002080B58F48016841F094
:1013600010010160032000F071F8002000F004F883
:1013700000F020F8002080BD70B50D4E04464FF4FB
:101380007A713078B1FBF0F090490968B1FBF0F068
:1013900000F0E4FA01250F2C08D838B94FF0FF30DF
:1013A00021460022002500F035F87460284670BD03
:1013B00004000020E0B50E48016841F00101016021
:1013C000016801F0010101910199416841F08051EA
:1013D0004160406800F0805000900098052000F0C7
:1013E00035F804480222016862F31A6101608CBD7D
:1013F0001810024004000140002808D400F01F012A
:101400000122400902FA01F1014A42F82010704716
:1014100000E100E070B5134B4FF0FF351B68C3F3DC
:101420000223DC1E83F0070338BF0024042B28BFEF
:10143000042305FA04F605FA03F3B2439943A140E5
:101440001143BDE8704001F07DBC00BF05494FF677
:10145000FF030A681A4060F30A2203481043086039
:10146000704700BF0CED00E00000FA052DE9F843DD
:1014700000286AD0884648490446086800F00700FA
:1014800040450AD2086820F0070040EA08000860DA
:10149000086800F00700404557D120685A4B89463C
:1014A000810711D5410703D5196841F4E06119603E
:1014B000010703D5196841F460511960A1681A68E1
:1014C00022F0F00211431960C00737D1D9F80000AB
:1014D00000F0070040450DD9D9F8000020F00700C2
:1014E00040EA0800C9F80000D9F8000000F0070041
:1014F00040452AD12068410705D5E1681A6822F4E1
:10150000E06211431960000706D52069196821F4CB
:10151000605141EAC00018601C4600F05BF8216889
:101520001E4AC1F30311515CC840284908601C4899
:101530000068FFF721FF0020BDE8F88360680128FC
:1015400006D153F8041C89030BD40120BDE8F883AD
:1015500053F8041C022802D18901F6D501E089075D
:10156000F3D519681D4621F0030108431860FFF701
:101570008BFB064641F28837606829682B4601F0EC
:101580000C01B1EB800FA1D0FFF77EFB801BB842AE
:10159000F2D90320BDE8F88300200240003700089C
:1015A00008000020EB481849094A00680968C1F39F
:1015B0000221515CC8407047E6481349044A00685C
:1015C0000968C1F3C221515CC8407047140400206F
:1015D0001037000810B50C490C480A6802F00C03DB
:1015E000082B07D1C2F3834309A4D203E35C02D4DE
:1015F0000C48584310BD096809A25843C1F3404143
:10160000515CB0FBF1F010BD0410024000127A00F2
:1016100002030405060708090A0B0C0D0E0F101033
:101620000102000000093D002DE9FC41002800F006
:10163000A68004460078C54EC00725D0706800F02B
:101640000C0004281AD0706800F00C00082802D1A1
:101650007068C00312D46068002800F00C81B0F5F7
:10166000803F07D03168B0F5A02F40F0388141F4B9
:1016700080203060306840F4803036E1306880038C
:1016800002D5606800287AD02078800718D5706865
:1016900010F00C0F07D0706800F00C00082824D15F
:1016A0007068C00321D43068800702D52069012802
:1016B00065D16069316821F0F80141EAC00030600D
:1016C0002078000741D5A06910B3A1480121C0F8D6
:1016D0008014FFF7D9FA0546706A800728D4FFF70F
:1016E000D3FA401B0228F7D90CE121699848002958
:1016F00000F09A8001210160FFF7C6FA05463068C4
:101700008007D6D4FFF7C0FA401B0228F7D9F9E0CA
:101710008F480021C0F88014FFF7B6FA0546706ABA
:10172000800712D5FFF7B0FA401B0228F7D9E9E08D
:1017300088484FF4FA510068B0FBF1F0019000BF07
:101740000198411E00280191F9D12078400719D451
:10175000E7698FB1706800F00C00082845D1012FAF
:101760000DD0216A706800F480328A4207D1616A24
:1017700000F47010884202D10020BDE8FC810120F5
:10178000BDE8FC81F069C0000BD4F0694FF001089E
:1017900040F08050F061F06900F0805000900098B7
:1017A00001E04FF000086C4F3868C0050FD438686E
:1017B00040F480703860FFF767FA05463868C00566
:1017C00005D4FFF761FA401B6428F7D99AE0E06876
:1017D000D0B3012805D0316A052862D141F0040058
:1017E0003062306A40F0010061E0594900208846CB
:1017F0000866FFF749FA0546022F0BD147463068C5
:10180000800140F18280FFF73FFA411B032002294B
:10181000F5D9B2E730688001AED5FFF735FA411B44
:1018200003200229F6D9A8E700210160FFF72CFA6E
:101830000546306880077FF543AFFFF725FA411B67
:1018400003200229F5D998E7306A20F001003062C0
:10185000306A20F004003062FFF716FA054641F2C4
:101860008837306A800731D5FFF70EFA411B032015
:10187000B942F6D981E7306820F4803030603068B2
:1018800020F480203060FFF7FFF9054630688003C0
:101890007FF5FAAEFFF7F8F9411B03206429F5D96B
:1018A0006BE721F001003062306A20F00400306202
:1018B000FFF7EAF9054641F28837306A800705D418
:1018C000FFF7E2F9401BB842F7D91BE0B8F1000F6F
:1018D0003FF43EAFF06920F08050F06138E721F42A
:1018E00080303060306820F480203060FFF7CCF921
:1018F0000546306880033FF5C7AEFFF7C5F9401BCA
:101900006428F6D90320BDE8FC81206AB0F5803F49
:1019100005D1A168726822F4003211437160616AD6
:101920000843716821F4741108437060012038661F
:10193000FFF7AAF90446306880013FF51DAFFFF7B5
:10194000A3F9011B03200229F5D916E70010024074
:10195000000042421404002000700040411E00209C
:10196000B0EB116F1CBF01207047044AF023516097
:1019700003490B70072190601160704710E000E090
:1019800023ED00E07047704710B590F83C3002221C
:10199000012B14D080F83D200368D1E900215C6858
:1019A00024F0700422439C685A6024F080021143A2
:1019B00000229960012180F83C2080F83D101046FB
:1019C00010BDB0B110B5044690F83D0028B9002014
:1019D00084F83C00204600F00FF80220211D84F816
:1019E0003D00206801F052F8012084F83D000020FD
:1019F00010BD012070470000E0B50068B0F1804FD5
:101A000018BF8CBD09480022016841F00101016046
:101A10000021006800F00100019001981C20FFF7F0
:101A2000F9FC1C20BDE88C40FFF7E6BC1C1002400E
:101A30000068C16841F00101C160816801F00701DF
:101A4000062903D0016841F00101016000207047C0
:101A5000B0B590F83C2004460220012A21D084F839
:101A60003D0001204FF6777584F83C00206802465F
:101A700052F8083FAB4313600B682BB1102B03D017
:101A8000202B18BF302B0DD1106820F070001843A8
:101A900040F0070010600020012184F83C0084F829
:101AA0003D10B0BD402B17D0502B22D0602B2DD035
:101AB000B3F5005F37D0702BEDD1D1E90103C968D0
:101AC000184340EA0120116821F47F410843106067
:101AD000106840F07700DDE74B68CA68194601F0EE
:101AE0000DF8226852F8080F40F0470020F030004F
:101AF000D0E74B68CA68194601F000F8226852F82E
:101B0000080F40F0570020F02000C3E74B68CA6878
:101B1000194601F004F8226852F8080F40F06700F7
:101B200020F01000B6E7D1E90103C968184340EA84
:101B30000120116821F47F4108431060106840F4CF
:101B40008040A7E7704710B504460068016989071F
:101B500044BFC1685FEA817139D40169490744BF54
:101B6000C1685FEA41713ED40169090744BFC16899
:101B70005FEA017144D40169C90644BFC1685FEAE4
:101B8000C16149D40169C9071CBFC1685FEAC1715D
:101B90004FD10169090644BFC1685FEA016150D4B1
:101BA0000169490644BFC1685FEA416151D40169D6
:101BB000890644BFC1685FEA816100D410BD6FF03F
:101BC000200101612046BDE81040FFF7DCBE6FF048
:101BD00002010161012121778069800741D02046FF
:101BE000FFF7B0FF43E06FF00401016102212177AC
:101BF000806910F4407F3ED02046FFF7A3FF40E00D
:101C00006FF00801016104212177C06980073CD091
:101C10002046FFF797FF3EE06FF0100101610821B9
:101C20002177C06910F4407F39D02046FFF78AFF42
:101C30003BE06FF001010161204600F03DF82068B3
:101C4000A7E76FF0800101612046FFF79BFE206847
:101C5000A6E76FF040010161204600F04DF82068D2
:101C6000A5E7204600F025F8204600F023F80020E4
:101C70002077206871E7204600F01BF8204600F02E
:101C800019F80020207720686EE7204600F011F850
:101C9000204600F00FF80020207720686BE72046F0
:101CA00000F007F8204600F005F8002020772068B3
:101CB00068E77047704700000C4900684A68904226
:101CC00000D070470A48012202700A480278002AB0
:101CD000F7D10A8840F29F5301320A8092B29A42A9
:101CE000EFD300220A800121017070471804002000
:101CF00010040020C4040020704750B310B50446FF
:101D000090F8390028B9002084F83800204600F007
:101D100023F8242084F839002068C16821F4005198
:101D2000C160204600F00CFF2068016921F4904159
:101D30000161416921F02A014161C16841F400510A
:101D4000C16000202021E06384F8391084F83A1043
:101D500010BD01207047000070B586B000261A4CF7
:101D6000CDE90466CDE90266006804F54051884279
:101D700027D1164802AD016841F480410160016835
:101D800001F4804101910199016841F00401016071
:101D90002946006800F0040001900320059002200D
:101DA00003904FF40070029001982046FEF792FED7
:101DB0004FF48060CDE90366294602902046FEF785
:101DC00089FE06B070BD00BF000801401810024037
:101DD0002DE9F041044690F8390020280AD10E463A
:101DE0000120002948D01746002A45D094F8380031
:101DF000012802D10220BDE8F08100201D46E063E9
:101E0000012084F83800212084F83900FEF73CFFD7
:101E10008046E784A784E08CF0B1E08C80214246C4
:101E20002B460138E0842046A76800F0C9FEB7F5CC
:101E3000805F0BD1B8B93288216920686FF35F22C7
:101E40000029426014BF01360236E4E758B916F89B
:101E5000010B21684860DEE72046402142462B46C0
:101E600000F0AEFE10B10320BDE8F081002020217B
:101E700084F8380084F83910BDE8F081FEE70000EE
:101E800005484FF480410022FEF7F9BE02484FF4A6
:101E900080410122FEF7F3BE000C014010B5584C02
:101EA0002078032800F29C80DFE800F0A6A2029BC5
:101EB000FFF7ECFF2078022840F092804FF4FA7090
:101EC000FEF7C4FD2078022840F08A804FF4FA70B3
:101ED000FEF7BCFD2078022840F082804FF4FA70B3
:101EE000FEF7B4FD207802287AD14FF4FA70FEF79D
:101EF000ADFD2078022873D14FF4FA70FEF7A6FDED
:101F0000207802286CD14FF4FA70FEF79FFD2078FC
:101F1000022865D14FF4FA70FEF798FD2078022868
:101F20005ED14FF4FA70FEF791FD2078022857D168
:101F30004FF4FA70FEF78AFD2078022850D14FF452
:101F4000FA70FEF783FD2078022849D1FFF798FF49
:101F50002078022844D14FF4FA70FEF777FD2078FC
:101F600002283DD14FF4FA70FEF770FD2078022868
:101F700036D14FF4FA70FEF769FD207802282FD190
:101F80004FF4FA70FEF762FD2078022828D14FF452
:101F9000FA70FEF75BFD2078022821D14FF4FA7029
:101FA000FEF754FD207802281AD14FF4FA70FEF79C
:101FB0004DFD2078022813D14FF4FA70FEF746FD4C
:101FC000207802280CD14FF4FA70FEF73FFD2078FC
:101FD000022805D14FF4FA70BDE81040FEF736BD77
:101FE00010BD0848084900680968FEF773F918B978
:101FF000BDE81040FFF74ABFBDE81040FFF740BF03
:10200000C6040020600400200C040020026851690E
:1020100049054FF000010FD56FF480635361202212
:10202000016380F83D2080F83E1080F83C10016C80
:1020300041F004010164012108467047F8B51546D6
:102040000E4604464F1C2068406940071AD42046BB
:10205000FFF7DCFFA0B9002FF5D0FEF715FE16B193
:10206000401BB042EFD900202021206384F83D10AE
:1020700084F83E0084F83C00206C40F0200020648E
:102080000120F8BD0020F8BD2DE9F047DDF82090D3
:102090009A46164680468FB201F47F045D1C1820D4
:1020A000B4F5803F08BF1420D8F800100858384015
:1020B000C01BB0FA80F04009B0421DD1002DEED017
:1020C000FEF7E2FDBAF1000F03D0A0EB0900504586
:1020D000E5D900202021C8F8300088F83D1088F8A4
:1020E0003E0088F83C00D8F8400040F02000C8F8D6
:1020F00040000120BDE8F0870020BDE8F0872DE911
:10210000F8439846164681468FB201F47F05541C69
:10211000D9F80000B5F5803F0CBF416981693940AD
:10212000B9421AD0416949051AD4002CF0D0FEF703
:10213000ABFD1EB1A0EB0800B042E9D90020202180
:10214000C9F8300089F83D1089F83E0089F83C0054
:10215000D9F8400040F0200017E00020BDE8F883E7
:10216000016841F4007101606FF4806141610020F9
:102170002021C9F8300089F83D1089F83E0089F81F
:102180003C00D9F8400040F00400C9F840000120AC
:10219000BDE8F88370B515460E46044620684169CF
:1021A000490613D44169C90612D4FEF76DFD16B174
:1021B000401BB042F2D900202021206384F83D105A
:1021C00084F83E00206C40F020000CE0002070BD40
:1021D0006FF01001416100202021206384F83D1040
:1021E00084F83E00206C2064002084F83C0001202C
:1021F00070BDF8B515460E4604464F1C2068406970
:1022000000061AD42046FFF701FFA0B9002FF5D031
:10221000FEF73AFD16B1401BB042EFD90020202155
:10222000206384F83D1084F83E0084F83C00206C64
:1022300040F0200020640120F8BD0020F8BD00001F
:1022400080B5054805490160FEF7DAFB18B1BDE825
:102250008040FEF794BB80BDC804002000300240DF
:102260002DE9F04786B04FF000083048304C00228E
:102270004FF4C049CDF81480016841F010010160AD
:10228000016801F0100101910199016841F02001FC
:102290000160016801F0200101910199016841F09C
:1022A00008010160016801F00801019101990168CC
:1022B00041F0040101604FF4C041006800F00400E7
:1022C000019001982046FEF7DAFC4FF4805002ADF1
:1022D000194E012702901748294604970390824619
:1022E0002046B04702202946CDE904802046CDE9AA
:1022F0000297B0470AF580102946CDF81080039068
:10230000102002902046B0472020CDE903872946BF
:1023100002902046B0470A2002210022FFF77AF8F7
:102320000A20FFF769F806B0BDE8F08718100240F0
:10233000000C014000002110D50A000810B50B4820
:10234000194B0B4C00214FF48042C0E90043C0E917
:102350000211C0E90421C0E906110162FEF79AFCEE
:1023600018B1BDE81040FEF70ABB10BDD004002034
:102370000054004010B50B480B4B0C4C00214FF49F
:102380008042C0E90043C0E90211C0E90421C0E96C
:1023900006110162FEF77EFC18B1BDE81040FEF7A1
:1023A000EEBA10BD24050020A086010000580040B0
:1023B00010B586B0184C4FF0804142F2273249F6F2
:1023C0003F43204640F8041F00218161C0E90131EC
:1023D000CDE90411C0E90321CDE90211CDE90011D5
:1023E000FFF7EFFA08B1FEF7CAFA4FF48050043451
:1023F00002A902902046FFF72BFB08B1FEF7BFFAB7
:1024000000206946CDE900002046FFF7BDFA08B17B
:10241000FEF7B5FA06B010BD1804002010B50B4841
:102420000B4C4FF4E13300210C22C0E90043C0E91A
:102430000211C0E90412C0E90611FFF75EFC18B1F1
:10244000BDE81040FEF79BBA10BD00BF7805002024
:1024500000380140FEE7704770B58E4D0024E0B2B1
:10246000072888BF70BDA4F15000C0B2A847002063
:102470000026A8471020A84770B2002804D40020E6
:1024800000F0C4F90136F7E70134E8E77CB5304ED7
:102490002AA2002001210C23B0472EA20A200221EB
:1024A0000C23B0472D4A0520032110231025B047E7
:1024B0002BA22D2003211023B0472AA20A20052198
:1024C0000C23B047294A052006211023B04728A233
:1024D0002D2006211023B047264C3C20022110233A
:1024E0002246B0473C20042122461023B0473C201E
:1024F000062122461023B0471FA2562002210C239A
:10250000B0471F4C94F90060032E0FD81DA0042182
:10251000102350F826204E2000F04DF91DA0042174
:10252000102350F826206E2000F045F922785E2016
:1025300004210123009500F0F5F87CBD2D2D2D2DF3
:102540002D2D2D2D2D2D2D2D2D2D2D2D000000006F
:10255000B727000854454D3A000000006A040020E7
:102560006000000048554D3A00000000970400202C
:1025700025000000363F00084D4F443A000000009F
:10258000C6040020303F0008323F0008323F0008F8
:10259000323F0008343F0008343F0008343F000851
:1025A000303F00082DE9F047089F984615468A46B7
:1025B000814600245FFA8AF1414528BFBDE8F087D3
:1025C000484600F055F84E46F0B2A84206D2A0B2F6
:1025D000385C00F01BF901360134F5E70AF1010A15
:1025E000E8E7000010B54FF4FA70FEF72FFA294C17
:1025F000AE20A0470020A0471020A0474020A047C1
:102600008120A047FF20A047A120A047C820A047C5
:10261000A620A047A820A0473F20A047D320A0473E
:102620000020A047D520A0478020A047D920A04760
:10263000F120A047DA20A0471220A047DB20A047C6
:102640004020A0472020A0470220A0478D20A0477F
:102650001420A047A420A047A620A047AF20A04751
:10266000FFF7FAFE00200021BDE81040AFF3008024
:10267000B0B50446A1F15000064DC0B2A8472009EC
:102680001030A84704F00E0029460130BDE8B040E4
:10269000084700BFE92700082DE9F843044640B287
:1026A0001D46164601EBD4170028D8BF002420464B
:1026B000F9B2FFF7DDFFA6F12000102DC0B20DD159
:1026C000DFF85C804FEA0019002608EB0015082EA1
:1026D00011D0A85D00F09AF80136F8E70F4900EB39
:1026E0004000002501EB4004062D15D0605D00F090
:1026F0008DF80135F8E7781CC1B22046FFF7B8FF26
:1027000049F00800002508EB0004082D04D0605DA6
:1027100000F07CF80135F8E7BDE8F88318370008C9
:10272000403900082DE9F84F07460A981C469146A3
:102730000E46A3F1010A4FF000084FF0000B4508C8
:102740000020A04508BFBDE8F88FC0430121204408
:10275000020604D001EB810101384900F8E7B9FB1A
:10276000F1F00A21BBF1000FB0FBF1F101EB8101A7
:10277000A0EB410104D1C24502DD89B14FF0010B4C
:1027800005FB087041F030010A9BCAB23146C0B265
:10279000FFF782FF08F1010108F101008846D0E748
:1027A00005FB08700A9B31462022C0B2FFF774FF78
:1027B0004FF0000BEEE72DE9F041984615460E4626
:1027C00007460024E0B22A5C62B1F8B2F1B2434697
:1027D000FFF762FF08370134F8B2782884BF023669
:1027E0000027EFE7BDE8F081E0B58DF80700002095
:1027F0000DF10602782102238DF806004FF6FF70D6
:1028000000900B48FEF78EFC8CBD00BFE0B58DF844
:10281000070040200DF10602782102238DF8060002
:102820004FF6FF7000900248FEF77CFC8CBD00BFA5
:10283000D004002070470000F8B50E46FF21144672
:102840000546FEF780F8A978884225D1E81CFF21CB
:10285000FEF779F8697988421ED1288800BA000C01
:10286000FDF746FD0D4F3946FDF7F6FC0C49FDF727
:10287000C1FC0C49FDF766FC3060B5F8030000BAF6
:10288000000CFDF735FD3946FDF7E6FC0649FDF77E
:10289000B1FC20600020F8BD0120F8BD00FF7F479B
:1028A00000002F43000034C20000C84242F2202042
:1028B00000F01AB81CB504464FF4604000F014F85C
:1028C0004FF6FF7089212246062300900E48FEF73E
:1028D00095FA1CBD80B543F2A20000F005F8142063
:1028E000BDE88040FEF7B2B8E0B540BA0DF106028F
:1028F00088210223ADF806004FF6FF7000900248D1
:10290000FEF710FC8CBD00BF24050020FEB54FF47F
:102910007A70FEF79BF81E4C04F108052846FFF775
:10292000C9FF08B11BA006E0221D28462146FFF77B
:1029300083FFD8B11EA000F0D1FE2068FDF7DDFCBA
:10294000284D02460B4604F10E00294600F044FAD9
:102950006068FDF7D2FC02460B4604F13B002946B5
:1029600000F03AFAD14800210170FEBDD4E90050D0
:10297000FDF7C3FC064628460F46FDF7BEFC02469F
:102980000FA00B46CDE9006700F016FAD5E700BFAF
:102990005C04002072656164206461746120667269
:1029A0006F6D207368743330206661696C2E00008F
:1029B00063726320636865636B206661696C2E00D7
:1029C00074656D7065726174757265203D20256651
:1029D0002C2068756D6964697479203D2025660A2C
:1029E00000000000383F00087047FEF7ABBCB0B5F0
:1029F00090B000244FF4E0100225CDE90B44CDE95E
:102A000009440F904FF480300D950E90CDE90704E6
:102A1000012006900A9006A8FEF706FE4FF480609B
:102A20000594022104900F20CDE90254019001A8E1
:102A3000FEF71CFD10B0B0BD0E480F4A016841F012
:102A400001010160416811400C4A41600168114078
:102A50000160016821F480210160416821F4FE01D8
:102A600041604FF41F01816005484FF00061016033
:102A7000704700BF001002400000FFF8FFFFF6FEA5
:102A800008ED00E0CB48FFF75EB800BF70B5036803
:102A9000174AB0F1804F07D0164CA04204D09042A4
:102AA00002D0154CA04203D14C6823F0700323439D
:102AB000B0F1804F07D00F4CA04204D0904202D01A
:102AC0000D4CA04203D1CC6823F4407323434E69DC
:102AD00023F080030C688D68904243EA060303608C
:102AE000C562846201D1096911630121416170BD30
:102AF000002C0140000400400008004010B5036AAB
:102B0000046A24F001040462846924F0F00444EAB5
:102B10000212826123F00A021143016210BD036AAE
:102B200023F010030362836923F4704343EA023203
:102B3000036A826123F0A00242EA01110162704738
:102B4000B0B50446006804F108030ECB056925F40E
:102B5000405519432A4341F20C650261C26863691A
:102B6000AA4319431143C1604169A26921F440712C
:102B7000114341611149884202D0FEF713FD01E083
:102B8000FEF71AFD19214843D4E900126FF06304DF
:102B90009200B0FBF2F06422B0FBF2F303FB0400FE
:102BA000322404EB0010B0FBF2F000F0F00200F071
:102BB0000F0002EB031210448860B0BD00380140E2
:102BC0002DE9F0411D4690460F4604465E1C2068E4
:102BD00001683940B9421CD0002EF8D035B1FEF75B
:102BE00053F8A0EB0800A842F1D92068C16821F48D
:102BF000D071C160416921F00101416120200021B3
:102C000084F8390084F8381084F83A000320BDE8CD
:102C1000F0810020BDE8F081FEE70000E0B5FFF79D
:102C2000E1FCFFF72DF9FFF755FEFFF73FFE12A17C
:102C30000DA2002808BF1146084600F04FFD0320F2
:102C4000C821C822FDF75EFE10480021802208231B
:102C500000900020FFF7A6FC4FF49670FDF7F6FEFB
:102C6000BDE88C40FFF7F8BB736874333020696EA1
:102C70006974206F6B2E0000736874333020696EA6
:102C80006974206661696C2E000000000C00002051
:102C900080B5FDF775FE0548007808B1FFF736FEF0
:102CA000FFF7F4FBBDE88040FFF7F8B81004002000
:102CB000FFF7B4FF134C184D0FF24C080FF25C09EC
:102CC0001AA61EA72078C8B10C20002142460C236A
:102CD000A847142002214A460C23A8470F200421AC
:102CE00032460C23A8472A2006213A460C23A8473F
:102CF0000A20F421F422FDF705FEE3E7FFF7C8FF01
:102D0000E0E700BFC4040020507265737320616E59
:102D100079206B6579000000B7270008746F206583
:102D2000786974207468652000000000616E746921
:102D30002D6275726E696E670000000073746174B5
:102D40006500000010B5074C00F00F03044AB0F115
:102D5000FF3F2344C8BF83180801187010BD00BF8F
:102D600000E400E014ED00E01CB504468DF8070017
:102D700004480DF1070101220A23FFF729F8204634
:102D80001CBD00BF78050020FEF7E6FAFFF72FFE16
:102D9000FFF766FAFFF7D2FAFFF752FAFFF7EAFAFF
:102DA000FFF73CFBFFF704FB0248FEF741FEFFF78D
:102DB0007FFFFCE71C0400200FB4054B10B503A9EE
:102DC000044A029800F0EEF810BC5DF814FB000015
:102DD000692D0008000000200FB4084B10B504A9AD
:102DE00002AA039800F0DEF8044602A9002000F0D1
:102DF00070FC204610BC5DF814FB0000D3360008C0
:102E000002E008C8121F08C1002AFAD170477047B3
:102E1000002001E001C1121F002AFBD17047000011
:102E20002DE9FF5F82B00021DDE90430020DDDF8FD
:102E300040B0034318D044F61050A2F2FF32424390
:102E40001514119801281FD0A5EB0B00401C5FEA58
:102E5000000A4FF000064E4FDFF83891B04650465A
:102E600015D5CAF1000413E0119801244AA30128E2
:102E700001D16FEA0B010298119AC0E90031C0E953
:102E8000024206B0BDE8F09FCBF10000DFE7044648
:102E90000021404A491842EB0450CDE9001012E0ED
:102EA000E00707D032463B4640464946FDF75DFB0A
:102EB0008046894632463B4610461946FDF755FB8B
:102EC00006460F466410002CEAD1DDE90401DDE975
:102ED0000023BAF1000F06DAFDF747FB42464B46E6
:102EE000FDF743FB05E0FDF7B2FB42464B46FDF71D
:102EF000AEFB04460E460022284BFDF72FFC03D8FC
:102F00004FF0FF30014607E00022254B20463146B6
:102F1000FDF784FAFDF70AFC102409E0002C0ADB17
:102F20000A220023FDF712FA039B30321A55641E61
:102F300050EA0102F2D1641C039AC4F11103144453
:102F4000119A012A03D0012208430DD10AE0084357
:102F500004D000204FF0110B119072E7A3EB0B058A
:102F60006D1E0DE05B4504DD4FF0000205F101052B
:102F700004E003DA4FF00002A5F10105002AECD0CD
:102F800002981199C0E90231C0E9004579E70000D3
:102F9000000014400000F03F300000000000F0434B
:102FA0000000E03F2DE9FF4F95B09B46894606465D
:102FB00000250FE2252877D100242746F84A012171
:102FC000059400E0044316F8013F203B01FA03F0AA
:102FD0001042F7D130782A2811D06FF02F033078C3
:102FE000A0F13002092A16D8059A44F0020402EB37
:102FF000820203EB42021044761C0590EFE759F879
:10300000042B0592002A03DA504244F40054059040
:1030100044F00204761C30782E2816D116F8010FE1
:1030200044F004042A280DD06FF02F023078A0F16C
:103030003003092B09D807EB870302EB4303C718BA
:10304000761CF3E759F8047B761C30786C280FD097
:1030500006DC4C2817D068280DD06A2814D104E06B
:10306000742810D07A280FD10DE044F400140AE03F
:1030700044F4801401E044F440147278824202D196
:1030800004F58014761C761C307866280BD013DC8F
:10309000582877D009DC002875D04528F6D0462876
:1030A000F4D047281AD19DE118E0632835D0642870
:1030B00079D0652812D195E1702873D008DC672893
:1030C000F1D069286FD06E280DD06F2806D1B5E0F9
:1030D00073282CD0752875D0782874D05A46179943
:1030E00090476D1C75E1C4F30250022809D00328F3
:1030F0000DD0D9F8001004280DD00D6009F1040995
:1031000067E1D9F80010EA17C1E90052F6E7D9F8EB
:1031100000100D80F2E70D70F0E719F8041B8DF830
:10312000001000208DF80100EA46012003E059F864
:1031300004AB4FF0FF3061074FF0000102D40DE007
:1031400008F101018846B9420FDA8045F8DB1AF828
:1031500008100029F4D108E008F1010188468142F5
:10316000FADB1AF808100029F6D105985B46A0EBA7
:10317000080721463846179A00F094FA284400EBD5
:10318000080507E04DE029E10DE01AF8010B5A4669
:1031900017999047B8F10108F7D25B4621463846A7
:1031A000179A13E142E00A220092C4F302524FF050
:1031B000000A022A08D059F804CB032A4FEAEC711E
:1031C0000AD00DE029E02AE009F1070121F0070209
:1031D000F2E802C1914609E00FFA8CFC4FEAEC716B
:1031E000042A03D14FFA8CFC4FEAEC71002907DA6C
:1031F0000A460021DCF1000C61EB02012D2202E005
:10320000220504D52B228DF80420012203E0E207D9
:1032100001D02022F7E7904659E00A2102E010226F
:103220000DE010214FF0000A00910BE010224FF04A
:10323000000A44F004040827009203E008224FF03B
:10324000000A0092C4F30252022A05D059F804CBB6
:103250000021032A08D009E009F1070121F0070243
:10326000F2E802C1914605E01FFA8CFC042A01D164
:103270000CF0FF0C4FF00008220728D5702806D06C
:10328000009B83F0100353EA0A0305D00EE04022AE
:103290008DF80420012208E05CEA010206D0302209
:1032A0008DF804208DF8050002229046009B83F0E3
:1032B000080353EA0A030AD15CEA010201D162075A
:1032C00005D530228DF804204FF001087F1E5828C4
:1032D00004D034A003900EA802900DE036A0F9E7C8
:1032E00053466046009AFDF731F884460398825CA5
:1032F0000298401E029002705CEA0100F0D1029830
:1033000006A9081A00F1200A600702D524F48034C7
:1033100000E00127574502DDA7EB0A0000E000208E
:1033200000EB0A01009005984144401A0590E00323
:1033300006D45B462146179A059800F0B3F9054478
:10334000002706E001A85A46C05D179990476D1CFA
:103350007F1C4745F6DBE0030CD55B462146179AF8
:10336000059800F09FF9054404E030205A4617996B
:1033700090476D1C0099481E00900029F5DC08E07C
:10338000029802995A460078491C02911799904771
:103390006D1CBAF10001AAF1010AF1DC65E100003F
:1033A000092801003031323334353637383961621B
:1033B00063646566000000003031323334353637DF
:1033C00038394142434445460000000000F058F9B6
:1033D0000544761C307800287FF4ECAD19B02846FF
:1033E000BDE8F08F620700D4062709F1070222F03A
:1033F000070CFCE80223E14603F000485FEA080CF2
:1034000002D00FF2702C0DE05FEA045C02D50FF2DF
:10341000682C07E05FEAC47C02D00FF2602C01E068
:10342000AFF2700C4FF0FF3823F00043CDF850C0DE
:1034300065280CD006DC452809D046281DD0472831
:103440003DD13DE0662818D067287ED138E00021C4
:10345000112F01DB112000E0781CCDE9000106A945
:103460000EA8FFF7DDFCDDE90F010E9A03910021A4
:10347000009207F1010A04914DE04FF000400097DF
:10348000CDE9011006A90EA8FFF7CAFCDDE90F027D
:1034900003920E9B11990022DDF80CA00093049278
:1034A00011B9791C00EB010AB7EB0A0004D4C0F192
:1034B000FF3007F1010A0490AAEB0700019044E0F5
:1034C000012F00DA01270021112F01DD112000E07A
:1034D0003846CDE9000106A90EA8FFF7A1FCDDE9F9
:1034E0000F010E9A0391002104910092BA46210720
:1034F0000CD40399514500DA8A46BAF1010F05DD73
:10350000009AAAF10101515C302908D0B84202DAD0
:1035100010F1040F06DA0121CDE9011015E0AAF13E
:103520000101E9E7002805DC049901440491AAEBB4
:10353000000102E0411C514500DD8A460499401A11
:10354000401C01904FF000400290200704D40198E5
:10355000504501DBCDF8048000208DF84F00029823
:103560000DF14F07B0F1004F25D02B200E9002989F
:103570004FF0020800280CDA404202902D200E90F5
:1035800007E00A210298FCF7CBFE3031029007F8E1
:10359000011DB8F10001A8F10108F2DC0298002831
:1035A000EFD1791E0E980870307800F0200040F0BE
:1035B000450007F8020D12A8C01B00F10708149877
:1035C000007800B1012000EB0A01019801EBE071E5
:1035D00005984144401A401E0590E00306D45B461E
:1035E0002146179A059800F05DF805441498007874
:1035F00018B15A46179990476D1CE00324D55B46D5
:103600002146179A059800F04DF805441CE00498EF
:10361000002807DBDDE90301884203DD0098405CF8
:10362000179901E0179930205A469047049805F100
:103630000105401C04900198401E019004D12E20E9
:103640005A46179990476D1CBAF10001AAF1010A78
:10365000DDDC05E017F8010B5A46179990476D1C01
:10366000B8F10001A8F10108F4DC5B462146179A85
:103670000598ABE62D0000002B00000020000000A4
:103680002DE9F041044600251E461746880404D45F
:1036900005E039462020B0476D1C641EF9D5284648
:1036A000BDE8F0812DE9F041044600251E46904614
:1036B000C80301D5302700E02027880404D505E0A1
:1036C00041463846B0476D1C641EF9D52846BDE812
:1036D000F0810A68531C0B601070704710B50446E7
:1036E00001E0FFF741FB14F8010B04490028F8D171
:1036F000BDE810400A20FFF737BB000000000020A3
:103700000000000000000000010203040607080991
:10371000000000000102030400000000000000009F
:10372000002F000000000700070000147F147F1422
:1037300000242A7F2A1200626408132300364955A8
:10374000225000000503000000001C224100000080
:1037500041221C000014083E08140008083E080816
:10376000000000A060000008080808080000606071
:103770000000002010080402003E5149453E0000B0
:10378000427F4000004261514946002141454B3192
:10379000001814127F10002745454539003C4A495E
:1037A00049300001710905030036494949360006D0
:1037B0004949291E00003636000000005636000038
:1037C00000081422410000141414141400004122B3
:1037D000140800020151090600324959513E007C8B
:1037E0001211127C007F49494936003E4141412275
:1037F000007F4141221C007F49494941007F09095E
:103800000901003E4149497A007F0808087F00000D
:10381000417F4100002040413F01007F08142241C8
:10382000007F40404040007F020C027F007F040880
:10383000107F003E4141413E007F09090906003EDC
:103840004151215E007F0919294600464949493105
:103850000001017F0101003F4040403F001F204028
:10386000201F003F4038403F0063140814630007E6
:103870000870080700615149454300007F4141003D
:1038800000552A552A55000041417F0000040201DD
:1038900002040040404040400000010204000020BB
:1038A00054545478007F48444438003844444420F9
:1038B00000384444487F00385454541800087E09A6
:1038C00001020018A4A4A47C007F0804047800006E
:1038D000447D4000004080847D00007F102844002B
:1038E0000000417F4000007C04180478007C08043C
:1038F000047800384444443800FC24242418001878
:10390000242418FC007C0804040800485454542063
:1039100000043F444020003C4040207C001C2040EC
:10392000201C003C4030403C004428102844001C2F
:10393000A0A0A07C004464544C4414141414141427
:103940000000000000000000000000000000000077
:10395000000000F80000000000000033300000000C
:1039600000100C06100C0600000000000000000013
:1039700040C07840C0784000043F04043F04040085
:10398000007088FC08300000001820FF211E000095
:10399000F008F000E018000000211C031E211E00AA
:1039A00000F00888700000001E2123241927211030
:1039B00010160E00000000000000000000000000D3
:1039C000000000E01804020000000007182040007A
:1039D00000020418E000000000402018070000006A
:1039E000404080F0804040000202010F01020200CE
:1039F000000000F0000000000101011F01010100B2
:103A0000000000000000000080B070000000000016
:103A1000000000000000000000010101010101019F
:103A20000000000000000000003030000000000036
:103A3000000000008060180400601806010000000B
:103A400000E010080810E000000F102020100F0008
:103A5000001010F8000000000020203F202000008F
:103A600000700808088870000030282422213000E7
:103A700000300888884830000018202020110E00EF
:103A80000000C02010F8000000070424243F240098
:103A900000F80888880808000019212020110E006D
:103AA00000E0108888180000000F112020110E007F
:103AB00000380808C83808000000003F0000000077
:103AC0000070880808887000001C222121221C0038
:103AD00000E010080810E0000000312222110F0061
:103AE000000000C0C00000000000003030000000F6
:103AF0000000008000000000000080600000000066
:103B0000000080402010080000010204081020007E
:103B100040404040404040000404040404040400C9
:103B2000000810204080000000201008040201005E
:103B3000007048080808F00000000030360100005E
:103B4000C030C828E810E0000718272423140B0011
:103B50000000C038E0000000203C2302022738208B
:103B600008F8888888700000203F202020110E006F
:103B7000C030080808083800071820202010080066
:103B800008F808080810E000203F202020100F004F
:103B900008F88888E8081000203F2020232018001B
:103BA00008F88888E8081000203F20000300000083
:103BB000C03008080838000007182020221E020024
:103BC00008F808000008F808203F210101213F20E3
:103BD000000808F8080800000020203F202000000E
:103BE00000000808F8080800C08080807F000000FE
:103BF00008F888C028180800203F20012638200037
:103C000008F8080000000000203F2020202030009D
:103C100008F8F800F8F80800203F003F003F2000B7
:103C200008F830C00008F808203F200007183F00BF
:103C3000E01008080810E0000F10202020100F00EE
:103C400008F808080808F000203F210101010000E1
:103C5000E01008080810E0000F18242438504F0026
:103C600008F8888888887000203F2000030C3020E6
:103C700000708808080838000038202121221C0024
:103C8000180808F8080818000000203F200000006D
:103C900008F808000008F808001F202020201F0056
:103CA0000878880000C83808000007380E010000B6
:103CB000F80800F80008F800033C0700073C030080
:103CC000081868808068180820302C03032C3020E6
:103CD0000838C800C83808000000203F2000000055
:103CE00010080808C83808002038262120201800AD
:103CF000000000FE020202000000007F4040400081
:103D0000000C30C000000000000000010638C000B8
:103D100000020202FE000000004040407F00000060
:103D20000000040202020400000000000000000085
:103D30000000000000000000808080808080808083
:103D4000609060C0201010000000000708101000F4
:103D500000008080808000000019242222223F2061
:103D600008F8008080000000003F112020110E00A4
:103D70000000008080800000000E11202020110033
:103D8000000000808088F800000E112020103F20E5
:103D90000000808080800000001F22222222130069
:103DA000008080F0888888180020203F20200000B4
:103DB0000000808080808000006B94949493600069
:103DC00008F8008080800000203F210000203F2074
:103DD00000809898000000000020203F2020000074
:103DE000000000809898000000C08080807F000064
:103DF00008F8000080808000203F24022D30200041
:103E0000000808F8000000000020203F20200000EB
:103E10008080808080808000203F20003F20003F05
:103E20008080008080800000203F210000203F2013
:103E30000000808080800000001F202020201F00C4
:103E4000808000808000000080FFA12020110E00F3
:103E50000000008080808000000E112020A0FF80E4
:103E6000808080008080800020203F212000010091
:103E700000008080808080000033242424241900E6
:103E8000008080E0808000000000001F20200000F3
:103E90008080000000808000001F202020103F2034
:103EA000808080000080808000010E3008060100C4
:103EB00080800080008080800F300C030C300F0069
:103EC00000808000808080000020312E0E31200094
:103ED000808080000080808080818E7018060100C4
:103EE00000808080808080000021302C22213000E2
:103EF00000000000807C020200000000003F404003
:103F000000000000FF00000000000000FF000000B3
:103F10000002027C800000000040403F00000000E2
:103F2000000601010202040400000000000000007D
:103F300020003C003E007C00252E32660000000080
:103F4000603F00080000002018040000AC080008D2
:103F50006040000818040020A8050000102E00088A
:103F600041320102FF1001923AF8012C7878B8052D
:103F70004904C9011B78B801191661F460E0E01426
:103F80008080807AC00161390B2280071DE0E060EB
:103F900060E06015FFFFFFFD13B6DA180A7FBFFF70
:103FA000C3BABBBBBAC31139011D01EDEEEE1E1140
:103FB0002A7701290931101218FCFC7F1FCCFEFC66
:103FC000FCF8F8181C9CFCFC38180B183871B3E38B
:103FD000E0077F7FE6015C3E9F8381080F1D6F6DC8
:103FE000ECEEF77E7E67E7E6B6971C18802813F79D
:103FF000FAFDFD80FFF1FCF2E7CDDDD9DBDFE6FC69
:10400000F9802809FEFEFEBEDCEFF3FC0C2BDF80FE
:10401000801014383C0F1719387E7F1F01030F0FD3
:104020000E070707060E281330787E1F6360777F20
:104030007E7F703F7F7E77737170EF10083E7E67E2
:1040400067677E3C2A7C08041B7F3E1E0A2603010C
:1040500001CB448242011324F40000000000000060
:04000005080000ED02
:00000001FF
